{
  "_format": "hh-sol-artifact-1",
  "contractName": "getNFTbyFlashloan",
  "sourceName": "contracts/getwealthNFT.sol",
  "abi": [
    {
      "inputs": [
        {
          "internalType": "address",
          "name": "_token",
          "type": "address"
        },
        {
          "internalType": "address",
          "name": "_pool",
          "type": "address"
        },
        {
          "internalType": "address",
          "name": "_club",
          "type": "address"
        }
      ],
      "stateMutability": "nonpayable",
      "type": "constructor"
    },
    {
      "anonymous": false,
      "inputs": [
        {
          "indexed": true,
          "internalType": "address",
          "name": "previousOwner",
          "type": "address"
        },
        {
          "indexed": true,
          "internalType": "address",
          "name": "newOwner",
          "type": "address"
        }
      ],
      "name": "OwnershipTransferred",
      "type": "event"
    },
    {
      "inputs": [],
      "name": "attack",
      "outputs": [],
      "stateMutability": "nonpayable",
      "type": "function"
    },
    {
      "inputs": [],
      "name": "bankToken",
      "outputs": [
        {
          "internalType": "address",
          "name": "",
          "type": "address"
        }
      ],
      "stateMutability": "view",
      "type": "function"
    },
    {
      "inputs": [],
      "name": "club",
      "outputs": [
        {
          "internalType": "address",
          "name": "",
          "type": "address"
        }
      ],
      "stateMutability": "view",
      "type": "function"
    },
    {
      "inputs": [
        {
          "internalType": "uint256",
          "name": "amount",
          "type": "uint256"
        }
      ],
      "name": "executeWithMoney",
      "outputs": [],
      "stateMutability": "nonpayable",
      "type": "function"
    },
    {
      "inputs": [],
      "name": "owner",
      "outputs": [
        {
          "internalType": "address",
          "name": "",
          "type": "address"
        }
      ],
      "stateMutability": "view",
      "type": "function"
    },
    {
      "inputs": [],
      "name": "pool",
      "outputs": [
        {
          "internalType": "address",
          "name": "",
          "type": "address"
        }
      ],
      "stateMutability": "view",
      "type": "function"
    },
    {
      "inputs": [],
      "name": "renounceOwnership",
      "outputs": [],
      "stateMutability": "nonpayable",
      "type": "function"
    },
    {
      "inputs": [
        {
          "internalType": "uint256",
          "name": "tokenId",
          "type": "uint256"
        }
      ],
      "name": "transferNFT",
      "outputs": [],
      "stateMutability": "nonpayable",
      "type": "function"
    },
    {
      "inputs": [
        {
          "internalType": "address",
          "name": "newOwner",
          "type": "address"
        }
      ],
      "name": "transferOwnership",
      "outputs": [],
      "stateMutability": "nonpayable",
      "type": "function"
    }
  ],
  "bytecode": "0x608060405234801561001057600080fd5b5060405161062f38038061062f83398101604081905261002f916100e6565b6100383361007a565b600180546001600160a01b039485166001600160a01b031991821617909155600280549385169382169390931790925560038054919093169116179055610129565b600080546001600160a01b038381166001600160a01b0319831681178455604051919092169283917f8be0079c531659141344cd1fd0a4f28419497f9722a3daafe3b4186f6b6457e09190a35050565b80516001600160a01b03811681146100e157600080fd5b919050565b6000806000606084860312156100fb57600080fd5b610104846100ca565b9250610112602085016100ca565b9150610120604085016100ca565b90509250925092565b6104f7806101386000396000f3fe608060405234801561001057600080fd5b50600436106100935760003560e01c80638670872b116100665780638670872b146100f75780638da5cb5b1461010a5780639420b1491461011b5780639e5faafc1461012e578063f2fde38b1461013657600080fd5b80630efd09731461009857806316f0115b146100c7578063249e10c5146100da578063715018a6146100ef575b600080fd5b6003546100ab906001600160a01b031681565b6040516001600160a01b03909116815260200160405180910390f35b6002546100ab906001600160a01b031681565b6100ed6100e8366004610456565b610149565b005b6100ed6101be565b6001546100ab906001600160a01b031681565b6000546001600160a01b03166100ab565b6100ed610129366004610456565b6101d2565b6100ed6102b7565b6100ed61014436600461046f565b61032e565b6101516103ac565b600354604051632142170760e11b8152306004820152336024820152604481018390526001600160a01b03909116906342842e0e90606401600060405180830381600087803b1580156101a357600080fd5b505af11580156101b7573d6000803e3d6000fd5b5050505050565b6101c66103ac565b6101d06000610406565b565b600360009054906101000a90046001600160a01b03166001600160a01b0316631d669fb16040518163ffffffff1660e01b8152600401600060405180830381600087803b15801561022257600080fd5b505af1158015610236573d6000803e3d6000fd5b505060015460025460405163a9059cbb60e01b81526001600160a01b039182166004820152602481018690529116925063a9059cbb91506044016020604051808303816000875af115801561028f573d6000803e3d6000fd5b505050506040513d601f19601f820116820180604052508101906102b3919061049f565b5050565b6102bf6103ac565b600254604051638e5f5f5760e01b815230600482015269d3c229af83a14864000060248201526001600160a01b0390911690638e5f5f5790604401600060405180830381600087803b15801561031457600080fd5b505af1158015610328573d6000803e3d6000fd5b50505050565b6103366103ac565b6001600160a01b0381166103a05760405162461bcd60e51b815260206004820152602660248201527f4f776e61626c653a206e6577206f776e657220697320746865207a65726f206160448201526564647265737360d01b60648201526084015b60405180910390fd5b6103a981610406565b50565b6000546001600160a01b031633146101d05760405162461bcd60e51b815260206004820181905260248201527f4f776e61626c653a2063616c6c6572206973206e6f7420746865206f776e65726044820152606401610397565b600080546001600160a01b038381166001600160a01b0319831681178455604051919092169283917f8be0079c531659141344cd1fd0a4f28419497f9722a3daafe3b4186f6b6457e09190a35050565b60006020828403121561046857600080fd5b5035919050565b60006020828403121561048157600080fd5b81356001600160a01b038116811461049857600080fd5b9392505050565b6000602082840312156104b157600080fd5b8151801515811461049857600080fdfea264697066735822122045ee55ce43522dc0fbcfb481351850382a6d48a5f6e604fe7863f8a1619f329364736f6c63430008110033",
  "linkReferences": {},
  "deployedLinkReferences": {}
}